:100000000C9434000C9451000C9451000C94510049
:100010000C9451000C9451000C9451000C9451001C
:100020000C9451000C9451000C9451000C9451000C
:100030000C9451000C9451000C9451000C945100FC
:100040000C94D3000C9451000C9451000C9451006A
:100050000C9451000C9451000C9451000C945100DC
:100060000C9451000C94510011241FBECFEFD8E026
:10007000DEBFCDBF11E0A0E0B1E0E4E5F4E002C0F6
:1000800005900D92A032B107D9F721E0A0E2B1E0CE
:1000900001C01D92A138B207E1F70E941D010C9426
:1000A00028020C9400003FB7F894809125019091AC
:1000B0002601A0912701B091280126B5A89B05C073
:1000C0002F3F19F00196A11DB11D3FBFBA2FA92FD7
:1000D000982F8827BC01CD01620F711D811D911DD4
:1000E00042E0660F771F881F991F4A95D1F7089540
:1000F0008F929F92AF92BF92CF92DF92EF92FF9238
:100100004B015C010E9453006B017C010E94530073
:100110006C197D098E099F09683E73408105910520
:10012000A8F321E0821A9108A108B10888EEC80E50
:1001300083E0D81EE11CF11C81149104A104B104D8
:1001400029F7FF90EF90DF90CF90BF90AF909F90F6
:100150008F90089510923C0110923B0110922E0155
:1001600010922D01EDE3F1E08FEF9FEF93838283F7
:100170009583848391878087918B808B91A380A3C3
:1001800090937E0180937D01EFE2F1E01182108275
:1001900013821282158214821782168211861086AB
:1001A0001386128608951F920F920FB60F92112494
:1001B0002F933F938F939F93AF93BF938091210190
:1001C00090912201A0912301B0912401309120014E
:1001D00023E0230F2D3758F50196A11DB11D209363
:1001E00020018093210190932201A0932301B093D9
:1001F00024018091250190912601A0912701B091C1
:1002000028010196A11DB11D80932501909326011F
:10021000A0932701B0932801BF91AF919F918F9137
:100220003F912F910F900FBE0F901F90189526E8C9
:10023000230F0296A11DB11DD2CF789484B58260A0
:1002400084BD84B5816084BD85B5826085BD85B57A
:10025000816085BD80916E00816080936E001092F8
:100260008100809181008260809381008091810073
:100270008160809381008091800081608093800004
:100280008091B10084608093B1008091B000816062
:100290008093B00080917A00846080937A0080918E
:1002A0007A00826080937A0080917A0081608093E6
:1002B0007A0080917A00806880937A001092C10061
:1002C0008CEF8AB914B80E94AA00C0E0D0E000E127
:1002D00010E080917F019091800118161906CCF4EE
:1002E0009C01215031093093800120937F01880FB8
:1002F000991FFC01E050FF4F80818BB96CE271E0E7
:1003000080E090E00E947800209719F30E9400009E
:10031000E0CF23B12F7309F130E0F901EE0FFF1F99
:10032000E35CFE4F8081918197FF17C080913B0174
:1003300090913C018630910584F491838083AC01D7
:100340004F5F5F4F50933C0140933B01880F991FD3
:10035000FC01E15DFE4F3183208380912D0190915E
:100360002E0120913B0130913C01821793070CF044
:1003700045C0880F991FFC01E15DFE4F808199B156
:10038000917090932B0110922C0199B196959170D8
:100390009093290110922A01880F880F8BB98091C0
:1003A000290190912A01892BB9F080912D0190911A
:1003B0002E01019660913B0170913C016F5F7F4F70
:1003C0000E94000290932E0180932D0168EC70E052
:1003D00080E090E00E94780080912B0190912C01A8
:1003E000892B39F01BB81093800100937F010E9484
:1003F000AA006AE070E080E090E084CF8FE3BFCF96
:1004000097FB072E16F4009407D077FD09D00E94C1
:10041000140207FC05D03EF4909581959F4F0895F6
:10042000709561957F4F0895AA1BBB1B51E107C0D2
:10043000AA1FBB1FA617B70710F0A61BB70B881F74
:10044000991F5A95A9F780959095BC01CD01089503
:04045000F894FFCF4E
:10045400FC000000A80054008000400020001000B0
:1004640008000400C00030000C00F0000F00FC0085
:00000001FF
